:020000040800F2
:100000005008002045380008E9160008EB160008E3
:10001000EF160008F3160008F716000800000000AD
:10002000000000000000000000000000FB160008B7
:10003000FD16000800000000FF1600080117000868
:100040005F3800085F3800085F3800084B3500084B
:100050005F3800085F380008F11500085F380008B5
:100060005F3800085F3800085F3800085F38000814
:100070005F3800085F3800085F3800085F38000804
:100080005F3800085F3800085F3800085F380008F4
:100090005F3800085F3800085F38000899150008CD
:1000A0005F3800085F3800085F3800085F380008D4
:1000B0005F380008E31C00085F3800085F3800085C
:1000C0005F3800085F3800085F3800085F380008B4
:1000D0005F3800085F380008371400085F380008F0
:1000E000591500085F3800085F38000800F002F872
:1000F00000F050F80AA090E8000C82448344AAF172
:100100000107DA4501D100F045F8AFF2090EBAE86F
:100110000F0013F0010F18BFFB1A43F0010318473B
:10012000D8B70000F8B70000103A24BF78C878C1EB
:10013000FAD8520724BF30C830C144BF04680C60ED
:10014000704700000023002400250026103A28BF35
:1001500078C1FBD8520728BF30C148BF0B60704739
:10016000662909F0F284642906F06E850020704744
:100170001FB507F091FA04000020002108F056FC9A
:10018000401C60600020002108F03AFCE0601FBDC8
:1001900010B510BD07F064FD1146FFF7E9FF01F04F
:1001A00033FA07F08BFD03B4FFF7F2FF03BC03F053
:1001B000E9FA00002DE9FE4F82464FF0000B504651
:1001C00008F0FBFE8046FE4AFE4B08F049FF06465B
:1001D0000022FD4B08F072FC044608F0BFFE834687
:1001E0005A46FAA102A806F0F3FC5246F8A101A86B
:1001F00006F0EEFCF7A000234FF4FC6250210090C3
:10020000184606F0A8F8F6A000234FF4FC6250212F
:100210000090184606F09FF801A800234FF4FC62F6
:1002200050210090302006F096F8EFA000234FF404
:10023000FC6250210090482006F08DF81FFA8BF1E7
:10024000EA4805F0F3FC4FF4FA7003F06EFABDE8EB
:10025000FE8F10B5E648006828B9B420E44908606C
:10026000FFF7A8FF08E0E2480068B42804D10020A6
:10027000DF490860FFF79EFF4FF4FA7003F055FA6C
:1002800010BD08B5002006F080FCDAA000234FF472
:10029000FC6278210090102006F05DF808BD10B5D2
:1002A000DA48008800F4004008B3D8480078D849FC
:1002B0000870D8A006F080FC002414E0DA48005D45
:1002C000DA490880D848005DD949085500BFD748A9
:1002D000001F008800F040000028F8D00020CB4923
:1002E0000880601CC4B2CA4800788442E6DB10BDB6
:1002F0002DE9F04186B04FF00008002500240122CE
:1003000003A905A801F075FE2044C4B2002203A988
:1003100004A801F06EFE2044C4B214B101F0BEFD89
:100320006CE0BDF8140009F055FA0590BDF8100016
:1003300009F050FA049004A905A801F096FEDDF832
:100340001080059DBB48C0F800804560BAA000231E
:100350004FF4FC6219460090184605F0FCFF404639
:1003600009F0A8F8064632460B46B5A102A806F0E9
:100370002FFC02A800234FF4FC62194600901020C5
:1003800005F0E9FFB0A000234FF4FC62194600908D
:10039000382005F0E0FF284609F08CF80646324682
:1003A0000B46A7A102A806F013FC02A800234FF4F5
:1003B000FC6219460090482005F0CDFFA448006873
:1003C00009F0F0F90646294609F018FB0BD201F0B6
:1003D0004EFFA0A000234FF4FC621946009070204D
:1003E00005F0B9FF0AE001F048FF9DA000234FF49B
:1003F000FC6219460090702005F0ADFF06B0BDE824
:10040000F0812DE9FF474FF00009002402F086FC3F
:10041000814602F0D4FC0446204609F04BF807461A
:100420000022924B08F05CFF054608F015FB0446DD
:100430008048C0F8009044607FA000234FF4FC6225
:1004400019460090184605F086FF484609F032F834
:1004500005462A460B467AA101A806F0B9FB01A879
:1004600000234FF4FC6219460090102005F073FF42
:1004700075A000234FF4FC6219460090382005F067
:100480006AFF204609F016F805462A460B466CA17D
:1004900001A806F09DFB01A800234FF4FC62194659
:1004A0000090482005F057FF6948006809F07AF984
:1004B0000546214609F0A2FA0BD201F0D8FE65A04C
:1004C00000234FF4FC6219460090702005F043FFB2
:1004D0000AE001F0D2FE62A000234FF4FC6219464C
:1004E0000090702005F037FFBDE8FF8700B585B0AC
:1004F00000200490039003A904A801F046FF9DF892
:1005000010004C4908729DF80C0048724AA0002364
:100510004FF4FC6214210090184605F01CFF9DF872
:1005200010202BA101A806F053FB01A800234FF4D3
:10053000FC6214210090102005F00DFF42A0002362
:100540004FF4FC6214210090382005F004FF9DF860
:100550000C201FA101A806F03BFB01A800234FF4CB
:10056000FC6214210090482005F0F5FE05B000BDA6
:100570002DE9FE4F00240A21052001F0B0FF0446BA
:10058000224613A101A806F023FB13A000234FF479
:10059000FC6228210090184605F0DDFE01A800232A
:1005A0004FF4FC6228210090184605F0D4FE214843
:1005B000C460204609F0F6F883464FF08B4157E0BF
:1005C000721CC7711CC7E13F00005940253464000C
:1005D0002564000020202020202020202000000072
:1005E000B6E6BBFA3A000000B6C8000000040040BE
:1005F00008000020BBB6D3ADCAB9D3C34C6574475D
:10060000726F77D6C7C4DCBBA8C5E80064000020C1
:100610000C0000200D0AC4FAB7A2CBCDB5C4CFFBA5
:10062000CFA2CEAA3A0D0A002601002004440040C1
:1006300080000020BC000020543A20202000000050
:1006400025332E3166000000483A202020000000AB
:1006500000000020CBAEB1C3BFAA202020200000A4
:10066000CBAEB1C3B9D82020202000000000344018
:1006700008F0BAFF824608F01DFF07464FF06632C9
:10068000FE4B08F0EDFC054608F0E6F981464846C9
:1006900008F010FF05462A460B46F9A101A806F00E
:1006A00097FAF9A000234FF4FC622821009038202B
:1006B00005F051FE01A800234FF4FC6228210090B0
:1006C000382005F048FEF2A000234FF4FC622821F8
:1006D0000090702005F03FFE484608F0EBFE05460E
:1006E000ED4AEE4B08F0BAFD09D8EDA000234FF417
:1006F000FC6228210090902005F02DFE4AE048463B
:1007000008F0D8FE05460022E64B08F0A7FD12D8F7
:10071000484608F0CFFE0546DF4AE04B08F064FC8F
:1007200009D2E1A000234FF4FC6228210090902020
:1007300005F011FE2EE0484608F0BCFE05464FF0DD
:100740006632DA4B08F08AFD12D8484608F0B2FE4D
:1007500005460022D34B08F047FC09D2D4A0002361
:100760004FF4FC6228210090902005F0F4FD11E088
:10077000484608F09FFE05464FF06632CB4B08F026
:1007800033FC07D2CBA000231F2228210090902009
:1007900005F0E1FDBDE8FE8F2DE9F04F85B04FF08B
:1007A00000090A21082002F09AF881464A46AFF271
:1007B000E01103A806F00CFA484608F0F3FF834660
:1007C0004FF08B4108F010FF824608F073FE4FF0A7
:1007D0006632AA4BCDE9000108F042FC0746002230
:1007E0004FF0804308F03CFC054608F035F90290D4
:1007F000029808F05FFE05462A460B46A0A103A812
:1008000006F0E6F9A0A000234FF4FC62A0210090BE
:10081000382005F0A0FD03A800234FF4FC62A021BE
:100820000090382005F097FD029808F043FE074637
:100830000022A14B08F054FD8246A04AA04B08F0CC
:10084000F9F9054608F08AFBC4B20E2C7AD2DFE82B
:1008500004F0071A2D4053667A8DA0B3C6D9ECFD7B
:1008600098A000234FF47842A0210090184605F08C
:1008700072FD95A000234FF47842A0210090102033
:1008800005F069FD6FE192A000234FF47842A021AA
:100890000090184605F05FFD8EA000234FF47842CB
:1008A000A0210090102005F056FD5CE18BA00023F4
:1008B0004FF47842A0210090184605F04CFD88A026
:1008C00000234FF47842A0210090102005F043FD52
:1008D00049E185A000234FF47842A02100901846FA
:1008E00005F039FD81A000234FF47842A02100904B
:1008F000102005F030FD36E17EA000234FF6E072B7
:10090000A0210090184605F026FD7BA000234FF69D
:10091000E072A0210090102005F01DFD23E178A0D9
:1009200000234FF6E072A0210090184605F013FD59
:1009300074A000234FF6E072A0210090102005F073
:100940000AFD10E10EE171A000234FF6E072A02134
:100950000090184605F0FFFC6DA000234FF6E072F2
:10096000A0210090102005F0F6FCFCE06AA0002316
:100970004FF6E072A0210090184605F0ECFC67A04D
:1009800000234FF6E072A0210090102005F0E3FC58
:10099000E9E064A000234FF6E072A0210090184621
:1009A00005F0D9FC60A000234FF6E072A021009072
:1009B000102005F0D0FCD6E05DA000234FF4FC62CF
:1009C000A0210090184605F0C6FC5AA000234FF461
:1009D000FC62A0210090102005F0BDFCC3E057A0F0
:1009E00000234FF4FC62A0210090184605F0B3FCF0
:1009F00053A000234FF4FC62A0210090102005F0CA
:100A0000AAFCB0E050A000234FF4FC62A0210090AB
:100A1000184605F0A0FC4AA000234FF4FC62A02178
:100A20000090102005F097FC9DE048A000234FF4B3
:100A3000FC62A0210090184605F08DFC44A0002324
:100A40004FF4FC62A0210090102000E002E005F0CD
:100A500082FC88E040A000234FF4FC62A0210090BB
:100A6000184605F078FC3DA000234FF4FC62A0215D
:100A70000090102005F06FFC75E0000066660A40EB
:100A800025332E3266000000202020205600000072
:100A9000CBAECEBB202000009A9999999999F93F45
:100AA000C2FA00000000F83FB8DF00006666F63FBB
:100AB000D6D00000B5CD000000000840197AA1177B
:100AC0007AA1B73FA9960000202030250000000041
:100AD000A2D900002031342500000000A2DA000075
:100AE0002032312500000000A2DB00002032382532
:100AF00000000000A2DC00002033352500000000CB
:100B0000A2DD00002034322500000000A2DE00003B
:100B10002035302500000000A2DF000020353725F9
:100B200000000000A2E00000203634250000000094
:100B3000A2E100002037312500000000A2E2000001
:100B40002037382500000000A2CF0000A2D000000E
:100B50002038352500000000A2D1000031303025BA
:100B60000000000000BF00BF05B0BDE8F08F30B549
:100B700085B00020019001F0CDFC01F002FE01A83B
:100B800001F028FEFE4901980861FEA000234FF401
:100B9000FC623C210090184605F0DDFB019808F04E
:100BA00089FC044622460B46FAA102A806F010F87A
:100BB00002A800234FF4FC623C210090182005F0AD
:100BC000CAFB01F0AFFC01F0DCFD01A801F002FE60
:100BD000EB4901984861F1A000234FF4FC623C21ED
:100BE0000090682005F0B7FB019808F063FC04460C
:100BF00022460B46E7A102A805F0EAFF02A800235F
:100C00004FF4FC623C210090802005F0A4FBE748F3
:100C1000007898B9DA490869E54908F0EFFE05D986
:100C2000D7494869E24908F0E9FE03D8002002F0FC
:100C30001BFA03E04FF47F0002F016FA05B030BD56
:100C40002DE9F04700F0F6FE00F0E9FECC49C86857
:100C500008F0A8FD82464FF08B4108F0C5FC8146A4
:100C600008F028FC07464FF06632D24B08F0F8F93E
:100C7000054607F0F1FE0446204608F01BFC054639
:100C80004FF06632CC4B08F0AFF903D200F0D2FE41
:100C900000F0B9FEC948006808F084FD0546B84870
:100CA0004168284608F0AAFE03D200F0C3FE00F017
:100CB0009FFEC348006808F075FD0546B04801690D
:100CC000284608F09BFD0AD3BD48006808F06AFD7D
:100CD0000546AB484169284608F090FD05D200F072
:100CE000A9FE00F085FE00F08EFEBDE8F08738B565
:100CF000002440E0B3A005F05FFF322002F015FDB4
:100D0000B548008800F40040002831D0B24800788F
:100D1000B2490870B2A000234FF4FC626421009035
:100D2000184605F018FBB54800234FF4FC62642117
:100D30000090184605F00FFBA8480078032816D14C
:100D4000AE480078592812D1AC48407865280ED1B9
:100D5000AA48807873280AD1A9A000234FF4FC6226
:100D60008C210090102005F0F6FA012038BD00E03B
:100D700000BF601CC4B2042CBCDBA5A000234FF450
:100D800078428C210090102005F0E5FA0020EDE774
:100D900070B5FFF736FBFFF7A9FBFFF7E9FBFFF79D
:100DA000FBFCFFF7E4FE9EA005F006FF744908680F
:100DB00008F080FB044622460B469CA005F0FCFE92
:100DC0006F49486808F076FB044622460B469DA012
:100DD00005F0F2FE6A48017A9FA005F0EDFE684832
:100DE000417AA2A005F0E8FE6548C168A4A005F01C
:100DF000E3FE6349086908F05DFB044622460B46A2
:100E0000A3A005F0D9FE5E49486908F053FB0446EB
:100E100022460B46A4A005F0CFFEA9A005F0CCFE0B
:100E200070BDAA4989880160A84989794160A749AC
:100E3000C9798160A5490978C160A44949780161EF
:100E4000A2498978416170470A6802604A68426035
:100E50008A688260CA68C2600A6902614A6942613E
:100E6000704770B503460024CAB918680D68A842D7
:100E70002CD158684D68A84228D198688D68A8423E
:100E800024D1D868CD68A84220D118690D69A8423C
:100E90001CD158694D69A84218D1012070BD002AA3
:100EA00014DDC868DD68401B4FF4616568430D6957
:100EB0001E69AD1BC5EB051500EB85004D695E692C
:100EC000AD1B4419944201DB0120E7E70020E5E770
:100ED00008B57F4840697D49897888424DD07DA01A
:100EE00000234FF4FC62A02100909C2005F033FA0F
:100EF00076480278AFF62811794805F069FE734804
:100F000000780A2812DA77A000234FF4FC62A021AF
:100F100000909C2005F01FFA714800234FF4FC62FA
:100F2000A0210090A42005F016FA08E06C480023E8
:100F30004FF4FC62A02100909C2005F00CFA63485D
:100F40004278AFF67411664805F042FE5F4840787B
:100F50000A2813DA63A000234FF4FC62A02100905A
:100F6000B22005F0F8F95E4800234FF4FC62A0219E
:100F70000090BA2005F0EFF9BFE0E9E0B4E000002E
:100F8000BC00002069313A2020202020206C757898
:100F90000000000025352E306600000069323A203E
:100FA00020202020206C7578000000002400002004
:100FB00000007A4466660A406666F63F000000203C
:100FC0000400002052657175657374436F6E6E6521
:100FD0006374696F6E0D0A00640000200C0000202D
:100FE0002020202020202020202020202020202001
:100FF00020202020202020200000000026010020AA
:10100000CDF8C2E7C1ACBDD3B3C9B9A62100000079
:10101000CDF8C2E7C1ACBDD3CAA7B0DC2100000047
:1010200044617461426567696E0D0A00736F696C93
:1010300054656D70657261747572653D252E3266FA
:101040000D0A0000736F696C48756D696469747985
:101050003D252E32660D0A0061697254656D70651A
:101060007261747572653D25640D0A00616972488C
:10107000756D69646974793D25640D0A000000008E
:1010800077617465724144433D25640D0A00000098
:10109000696C6C756D696E6174696F6E5F313D2549
:1010A0002E30660D0A000000696C6C756D696E610A
:1010B00074696F6E5F323D252E30660D0A000000A8
:1010C00044617461456E640D0A0000001C0100203B
:1010D000D400002020203A20203A202000000000E8
:1010E000B200002030000000F94800234FF4FC62F9
:1010F000A0210090B42005F02EF9F6488278AFF6D2
:101100003031F34805F064FDF24880780A2813DA9C
:10111000AFF2300000234FF4FC62A0210090CC20FD
:1011200005F019F9EA4800234FF4FC62A021009071
:10113000D42005F010F908E0E54800234FF4FC62E4
:10114000A0210090CC2005F006F9E348FFF769FEE6
:1011500008BD30B58DB0E1480078E1490870E1493B
:1011600003A805F0FFFEE0A000234FF4FC62642119
:101170000090184605F0EFF803A800234FF4FC6236
:1011800064210090102005F0E6F8D448008800F4AF
:10119000004000287ED0002414E004EB8401D94AEA
:1011A00002EBC10005F002FF054604EB8401D54ABD
:1011B00002EBC1002A4603A905F017FF00B903E0BE
:1011C000601CC4B2092CE8DB00BF092C62DA7CD2B7
:1011D000DFE804F00526294A6988A6AEB50001F0CB
:1011E00046F8AFF6903000234FF4FC6219460090A9
:1011F000702005F0B0F840F2DC5002F096FA4FF49F
:101200007A7002F092FAAFF6A83000234FF4FC6235
:1012100019460090702005F09EF801F02EF807E1C5
:10122000FFF717F804E1B8A103A805F095FEB74948
:101230000860B5A1002005F08FFEB4490860B44AEB
:10124000AFF67441B148006805F0C2FDB0480068CF
:10125000FEF7B0FFAFA000234FF478426421009066
:10126000962005F078F8E3E0A7A103A805F074FE46
:10127000A6490860A4A1002005F06EFEA3490860FD
:10128000A64AAFF6B441A148006805F0A1FDA1A0AF
:10129000002300E0CDE04FF47842642100909620D6
:1012A00005F059F8C4E098A103A805F055FE974948
:1012B000086095A1002005F04FFE94490860984A07
:1012C000AFF6F4419148006800E0A7E005F080FD2A
:1012D00090A000234FF4784264210090962005F0FE
:1012E0003AF8A5E088A103A805F036FE8D4908600C
:1012F00085A1002005F030FE8A4908608A4A8BA14A
:101300008848006805F064FD8748006801F0ACFE7D
:10131000854800688649086001208649087087E092
:101320006FF07F4001F0A0FE0120824908707FE04D
:10133000002001F099FE01207E49087078E072A13A
:1013400003A805F009FE7C4908606FA1002005F0A4
:1013500003FE79490860604AAFF68C517648006810
:1013600005F036FD68A1002005F0F6FD7249086021
:10137000594A121DAFF6A8516F48006805F028FDC4
:1013800061A1002005F0E8FD6B490860524A08326F
:10139000AFF6C4516848006805F01AFD5AA1002054
:1013A00005F0DAFD644908604B4A0C32AFF6E051B3
:1013B0006148006805F00CFD53A1002005F0CCFD4C
:1013C0005D490860444A1032AFF6FC515A48006843
:1013D00005F0FEFC4CA1002005F0BEFD564908605A
:1013E0003D4A1432AFF618615348006805F0F0FC2E
:1013F0003948007D3849097C374DCDE900102B7BF9
:101400002A7A29792D88A8B201F0E3FF3248FFF744
:1014100008FD31494948FFF717FD09E048A00023BE
:101420004FF4FC6264210090102004F094FF00BF90
:1014300000BF0DB030BD70B540F22551454802F0F7
:1014400061FF012843D1434802F0DCFEC4B22348C7
:10145000008800F40040002839D12048008800F4BA
:101460008040D0B10A2C03D000201C4908802EE017
:101470001A48008840F4004018490880FFF769FEC8
:10148000002504E0002017494855681CC5B2282DE6
:10149000F8DB00201149088019E00D2C06D10F4817
:1014A000008840F480400D49088010E00B48008817
:1014B000C0F30D000B490C5408480088401C074934
:1014C000088008460088C72801DD0020088070BD1C
:1014D000B20000201C010020D40000206400002085
:1014E0000C000020260100202A2A2A2A2A2A2A2A39
:1014F0002A2A2A2A2A2A2A2A2A2A2A2A2A2A2A2A4C
:101500002A2A2A003E9C0008230000002000002018
:1015100008000020534554204F4B000000000020DD
:101520000400002010000020140000202578000096
:1015300018000020240000201C000020EC000020E7
:10154000696E737472756374696F6E206572726F01
:10155000720000000044004010B50A2002F0E5F8D7
:101560004FF400615B4802F080FA10B9002001F0EE
:101570007BFD4FF48061574802F077FA18B96FF09D
:101580007F4001F071FD4FF4006004F01AFC4FF44D
:10159000806004F016FC10BD10B50A2002F0C5F8FA
:1015A0004FF400714B4802F060FA20B94FF47F010C
:1015B000FF2001F078FD4FF48071464802F055FAA3
:1015C00068B94548007818B901204349087006E019
:1015D00041480078012802D100203F4908704FF4AB
:1015E000007004F0EEFB4FF4807004F0EAFB10BDD5
:1015F00010B50A2002F099F80121364802F035FAB8
:10160000012004F0DEFB10BD02F052F84FF4A060A0
:1016100002F0BCFE01F03BFF00F064F901F0C6FCF3
:1016200001F0FFFC002001F01FFD00F04BFA01F07B
:10163000B9FF00F017FA00F003FE00F0D2FE00F050
:10164000F5FE01F0F3F840F63541042002F01AF8F7
:1016500001F035FA01F024FA01F093F805F05BF996
:101660004FF4165002F09DF8FEF70BFEC82000F074
:1016700012FAFEF7C6FEFEF739FFFEF779FFFFF715
:101680008BF8FFF774FA1548FFF7CBFB13491448A2
:10169000FFF7DAFB1CE0022210491148FFF7E1FBDB
:1016A00001280DD1FFF774FB0C490D48FFF7CCFB67
:1016B0000C48006808B9012000E0002009490860D2
:1016C000FFF706FC4FF4FA7002F02FF804F08BFBE2
:1016D000E1E700000008014024000020D4000020C1
:1016E000EC000020BC012142704700BFFEE700BFB4
:1016F000FEE700BFFEE700BFFEE770477047704798
:10170000704700000CB50020019000906C48006804
:1017100040F480306A49086000BF6948006800F4FE
:10172000003000900198401C0190009818B9019871
:10173000B0F5A06FF1D16248006800F4003010B13C
:101740000120009001E0002000900098012843D182
:101750005C48006840F010005A490860084600687C
:1017600020F0030008600846006840F002000860AE
:1017700053484068524948600846406848600846F7
:10178000406840F4806048600846406820F47C105F
:1017900048600846406840F4E81048600846006821
:1017A00040F08070086000BF4548006800F000709D
:1017B0000028F9D04248406820F0030040494860C2
:1017C0000846406840F00200486000BF3C4840685E
:1017D00000F00C000828F9D10CBD10B5FFF792FFFE
:1017E00010BD10B53648006840F00100344908606B
:1017F0000846406834490840314948600846006856
:10180000324908402E4908600846006820F48020CC
:1018100008600846406820F4FE0048604FF41F004E
:101820008860FFF7DAFF4FF000602949086010BDBB
:1018300010B5002100200022214B5B6803F00C0151
:1018400021B1042906D0082928D107E0214B224CD8
:10185000236027E01F4B204C236023E0184B5B687C
:1018600003F47010164B5B6803F48032022303EB21
:10187000904022B9194B4343174C23600DE0104BA5
:101880005B6803F4003323B1144B4343124C2360D1
:1018900003E0104B4343104C236003E00D4B0E4C10
:1018A000236000BF00BF064B5B68C3F303130C4CFF
:1018B000E15C094B1B68CB40074C236010BD000066
:1018C00000100240002002400000FFF8FFFFF6FE7B
:1018D00008ED00E000127A002800002000093D0019
:1018E0002C00002008B50121084602F0E7FA01218A
:1018F000554802F0F8F801210C2002F0DFFA4FF40D
:101900008050ADF8000010208DF8030003208DF802
:10191000020069464D4802F015F84FF480514B48DB
:1019200002F0BDF84FF40040ADF8000069464748AA
:1019300002F008F84FF40041444802F0B0F80820E3
:10194000ADF800006946424801F0FCFF082140481C
:1019500002F0A7F81020ADF8000069463C4801F0FD
:10196000F1FF10213A4802F09CF82020ADF8000069
:101970006946374801F0E6FF2021354802F091F82A
:1019800008BD70B5044601203249086000251AE000
:101990003048006808B9012000E000202D490860A7
:1019A0004FF4FA7001F0C1FE2B48D0F8B00108B92D
:1019B000012000E00020274908604FF4FA7001F090
:1019C000B4FE681CC5B2A542E2DB70BD002021490F
:1019D0000860704701201F490860704700201D49BA
:1019E0000C310860704701201A490C3108607047BB
:1019F00001201A49086000201949C1F88C011749D3
:101A0000091F08607047002014490860012014492C
:101A1000C1F88C0100201149091F0860704700209F
:101A20000E4908600E49C1F88C0101200B49091FBD
:101A3000086070470020094908600949C1F88C0115
:101A40000649091F08607047000230000008014085
:101A5000000C0140B001214200002142948121424A
:101A60000080214208B50121112002F027FA4FF42D
:101A70000050ADF8000010208DF8030002208DF812
:101A8000020069460C4801F05DFF4FF400510A481E
:101A900002F007F808BD10B50446012007490860A8
:101AA000A0B201F042FE00200549C1F8B401A0B285
:101AB00001F03BFE10BD000000100140B4012242C5
:101AC0000000224208B50121042002F0F7F94FF48A
:101AD0000060ADF8000048208DF8030069466848B2
:101AE00001F030FF4FF48060ADF8000048208DF821
:101AF00003006946624801F025FF4FF40070ADF81D
:101B0000000048208DF8030069465D4801F01AFF87
:101B10004FF48070ADF8000048208DF8030069464E
:101B2000574801F00FFF0120ADF8000028208DF884
:101B300003006946524801F005FF08BD10B5044690
:101B400014B101204F4908704E48007800284BD04E
:101B50004FF400614A4801F088FFB8B14FF480614A
:101B6000474801F082FF88B14FF40071444801F00A
:101B70007CFF58B14FF48071414801F076FF28B1E5
:101B800001213F4801F071FF01282DD10A2001F009
:101B9000CCFD00203B4908704FF40061384801F04B
:101BA00064FF08B9012010BD4FF48061344801F092
:101BB0005CFF08B90220F6E74FF40071304801F0ED
:101BC00054FF08B90320EEE74FF480712C4801F070
:101BD0004CFF08B90420E6E70121294801F045FF40
:101BE000012822D10520DEE74FF40061244801F0EE
:101BF0003CFF012819D18102214801F036FF01285C
:101C000013D141021E4801F030FF01280DD101021D
:101C10001B4801F02AFF012807D10121184801F0D3
:101C200024FF10B90120174908700020BBE770B5E8
:101C3000002500242846FFF781FF0446062C18D211
:101C4000DFE804F01703070B0F130120FFF799FEDD
:101C500013E00220FFF795FE0FE00320FFF791FE4F
:101C60000BE00420FFF78DFE07E00520FFF789FE5B
:101C700003E00A2001F059FD00BF00BF70BD000065
:101C8000000801403C0000207FB505460C460121BC
:101C9000022002F020F9ADF80850ADF80440002011
:101CA000ADF80A00ADF8060001A9364803F0CAF9FC
:101CB00001221146334803F03CFD1D208DF8000041
:101CC00000208DF8010003208DF8020001208DF81E
:101CD0000300684602F05FFB01212A4803F00EFD75
:101CE0007FBD10B50121274803F0D1FF58B1012174
:101CF000244803F0DDFF2448006808B9012000E013
:101D000000202149086010BD30B589B005460C4659
:101D10000121022002F0DFF80121042002F0CEF8B8
:101D20004020ADF8200018208DF8230003208DF806
:101D3000220008A9154801F005FEADF81850ADF8CD
:101D400014400020ADF81A00ADF8160005A90D48A2
:101D500003F078F97020ADF804000120ADF806001A
:101D60000220ADF80C0001A9064803F0A8F90821EB
:101D7000044803F0F3FD0121024803F0BFFC09B061
:101D800030BD000000040040B001214200080140C5
:101D900008B50121082002F091F84FF44060ADF839
:101DA000000010208DF8030003208DF80200694622
:101DB000FE4801F0C7FD08BD08B54FF40060ADF85E
:101DC000000010208DF8030003208DF80200694602
:101DD000F64801F0B7FD08BD08B54FF40060ADF856
:101DE000000048208DF803006946F04801F0AAFD84
:101DF00008BD10B504462CB14FF48061EB4801F0EA
:101E00004EFE04E04FF48061E84801F04AFE10BD48
:101E100010B50446FFF7D0FF2CB14FF40061E34842
:101E200001F03DFE04E04FF40061E04801F039FEAE
:101E300010BD10B5FFF7D0FF4FF40061DB4801F093
:101E400014FE10BD10B50120FFF7E2FF0020FFF7E0
:101E5000D0FF022001F045FC0120FFF7CAFF02205D
:101E600001F03FFC0020FFF7D3FF022001F039FC16
:101E70000020FFF7BEFF062001F033FC0120FFF732
:101E8000B8FF022001F02DFC0120FFF7C1FF022066
:101E900001F027FC0020FFF7ACFF10BD10B50120BA
:101EA000FFF7B6FF0020FFF7A4FF002407E00120A2
:101EB000FFF79FFF0020FFF79CFF601CC4B2092CB6
:101EC000F5DBFFF7BFFF10BD70B505460026802487
:101ED0001DE004EA050018B10120FFF799FF02E0B8
:101EE0000020FFF795FF022001F0FBFB0120FFF728
:101EF00080FF062001F0F5FB0020FFF77AFF0220AB
:101F000001F0EFFB204604EBD071C1F34704002C35
:101F1000DFDC0120FFF77CFF022001F0E2FB012063
:101F2000FFF767FFFFF785FF06460020FFF761FF19
:101F3000304670BD10B5FFF7B1FF1E20FFF7C4FF9C
:101F40002044C4B2204610BD70B5054600260120CD
:101F5000FFF75EFF80240AE00120FFF74AFFFFF74A
:101F600068FF00B126430020FFF743FF6410002CF8
:101F7000F2DC0DB9012100E000210846FFF748FF1F
:101F8000022001F0AEFB0120FFF733FF062001F035
:101F9000A8FB0020FFF72DFF022001F0A2FB01208B
:101FA000FFF736FF304670BD70B504460D4600267B
:101FB000FFF748FF0720FFF787FF06460120FFF7DE
:101FC000C3FF20700020FFF7BFFF2870304670BDB0
:101FD00070B505460024FFF735FF0620FFF774FFB4
:101FE0002044C4B22878FFF76FFF2044C4B22046D3
:101FF00070BD2DE9F04105460F4690460024FFF7DD
:1020000021FFB8F1000F03D0B8F1010F0CD105E0AA
:102010000320FFF759FF2044C4B206E00520FFF774
:1020200053FF2044C4B200E000BF00BF002604E01C
:10203000FFF7FFFE00B903E0761C5D488642F7D348
:1020400000BFFFF7F6FE08B1601CC4B20120FFF725
:102050007BFF68700120FFF777FF28700020FFF7F3
:1020600073FF38702046BDE8F0812DE9F04F8BB04A
:1020700004460D464F4809904F4808904F48079036
:102080004F4806904F4805902068049028680390B8
:10209000039807F00FFA4C4A4C4BCDE9000106F0CB
:1020A000DFFF07464A4A4B4B07F01AF9824606F013
:1020B000D3FC81464048049907F0D4FB82463F4850
:1020C000049907F0CFFB8346049907F0CBFB8046C9
:1020D000514607F01BFA0746364907F017FA0290F7
:1020E0003848049907F0BEFB8346354907F00EFADD
:1020F00080463949484607F0B3FC8246414607F01E
:10210000B1FB0746029907F001FA0646484607F078
:10211000D1F982460022314B07F0E2F8074606F07B
:102120009BFC81462E49304607F09AFC06462D4915
:10213000304607F063FC00D22A4E304607F0BAF969
:102140000746234A284B06F04FFF00D2274EC5F81A
:10215000009026600BB0BDE8F08F2DE9F34F89B0F9
:1021600023480790234806900A99069807F0CEF96D
:1021700081460A99079807F075FB4946039007F0D6
:1021800033FA804607F096F904460D46099807F0A1
:1021900091F9CDE9000106F0C1FB804600224FF025
:1021A000804307F09DF8144A144B29E0000C0140CD
:1021B000A0860100C5FE02C0BD52163DF624D6B56C
:1021C0000AD7233CACC5A7387B14AE47E17A843FDD
:1021D0009A99999999D943400000C84100803F409D
:1021E0000000F0410000C8429999B93FCDCCCC3DE8
:1021F000C3F58C41B81E73437AC7293A92CBDB3FB3
:10220000CDE9020106F016FD064622462B4606F0F1
:1022100055FC824606F020FC05900599079807F0CA
:102220001FFC0446DDE9051007F01CFB05462146AE
:1022300007F0DAF9049004980BB0BDE8F08F0000C5
:1022400008B50121042001F039FE8020ADF800001E
:1022500010208DF8030003208DF8020069460A481B
:1022600001F070FB8021084801F01BFC08BD10B58F
:102270008021054801F013FC10BD10B580210248F3
:1022800001F00FFC10BD00000008014010B56248CD
:10229000006820F0F000604908600846006840F0DF
:1022A0003000086000205D490860142001F03DFA0C
:1022B00001205B49C1F884011E2001F012FA10BD13
:1022C00010B500245448006820F0F000524908601E
:1022D0000846006840F08000086004E0601CC4B25A
:1022E000012001F0FEF94D488038006808B1642CE7
:1022F000F4DB642C01DB012010BD002404E0601C31
:10230000C4B2012001F0EDF944488038006808B9F2
:10231000642CF4DB642C01DB0120EDE70020EBE70B
:1023200010B5002404E0601CC4B2012001F0D9F90A
:102330003A488038006808B1642CF4DB002404E0DB
:10234000601CC4B2012001F0CCF934488038006828
:1023500008B9642CF4DB282001F0C3F92F48803839
:10236000006808B1012010BD0020FCE770B5002412
:10237000002506E06006040EFFF7D2FF0443681C48
:10238000C5B2082DF6DB204670BD7CB505460E466D
:10239000FFF77CFFFFF794FFF8B9002405E0FFF793
:1023A000E5FF0DF80400601CC4B2052CF7DB9DF8B6
:1023B00000009DF8011008449DF8021008449DF8A3
:1023C000031008449DF80410884208D19DF80000CD
:1023D00030709DF80200287001E001207CBD0020D3
:1023E000FCE708B50121042001F068FD0220ADF8EA
:1023F000000010208DF8030003208DF802006946CC
:10240000084801F09FFA0221074801F048FBFFF756
:102410003DFFFFF755FF08BD000801408401214240
:102420000000214200200140000C014000B587B0AF
:1024300001214FF4017001F041FD4FF4004001F023
:10244000A1FC2020ADF8040000208DF8070001A9B0
:102450002E4801F077FA2E4802F006F8002002908C
:102460008DF80C008DF80D004FF4602004900020D2
:10247000059001208DF8180002A9254802F01BF8EC
:102480000121234802F043F8214802F062F800BF1E
:102490001F4802F063F80028FAD11D4802F068F8DE
:1024A00000BF1B4802F069F80028FAD107B000BD50
:1024B00010B50446072301222146154802F093F87F
:1024C0000121134802F063F800BF0221104802F016
:1024D000CFF90028F9D00E4802F0ECF810BD2DE934
:1024E000F04107460C460025002608E03846FFF775
:1024F000DFFF0544052001F018F9701CC6B2A642A2
:10250000F4DBB5FBF4F080B2BDE8F08100080140D7
:10251000002401400020BF4908600120BE49C1F8E5
:10252000980170470120BB4908600020BA49C1F8F2
:102530009801704708B50121082001F0BFFC102068
:102540008DF8030003208DF802004FF47070ADF891
:1025500000006946B14801F0F5F908BD10B54FF427
:102560000071AE4801F09BFA4FF48071AB4801F066
:1025700096FA052001F0B5F84FF40071A74801F074
:1025800090FA052001F0ADF84FF48071A34801F0F6
:1025900088FA10BD10B54FF40071A04801F081FA1F
:1025A0004FF480719D4801F07AFA052001F099F806
:1025B0004FF40071994801F072FA052001F091F88A
:1025C00010BD38B5044610208DF8030003208DF8A7
:1025D00002004FF40070ADF8000069468F4801F02A
:1025E000B1F9012C04D161028C4801F058FA07E0DE
:1025F0002CB94FF40071894801F053FA00E038BD5E
:102600004FF48071854801F04AFA052001F069F81D
:102610004FF48071814801F044FA052001F061F81F
:1026200000BFECE708B548208DF8030003208DF8C3
:1026300002004FF40070ADF800006946774801F0E1
:1026400081F94FF48071754801F029FA052001F0F5
:1026500048F84FF40071714801F007FA012802D1DF
:102660006F49086002E000206D4908604FF48071F6
:102670006A4801F016FA052001F033F810208DF8B1
:1026800003006946654801F05DF96548006808BDCA
:1026900070B50446002521E004F0800028B14FF415
:1026A00000715E4801F0FBF904E04FF400715B48F3
:1026B00001F0F7F96006040E4FF48071574801F0FD
:1026C000EEF9052001F00DF84FF48071534801F048
:1026D000E8F9052001F005F8681CC5B2082DDBDB20
:1026E000FFF7A0FF70BDF8B5002448208DF8030067
:1026F0004FF40070ADF8000003208DF80200694629
:10270000464801F01FF94FF40071444801F0C7F941
:1027100000251EE06006040E4FF480713F4801F072
:10272000BEF9052000F0DDFF4FF400713B4801F0D9
:102730009CF9012801D1012600E0002634434FF422
:102740008071364801F0ADF9052000F0CAFF681C21
:10275000C5B2082DDEDB10208DF8030069462F4836
:1027600001F0F0F82046F8BD10B50446FFF7F6FE7C
:102770004620FFF78DFF2046FFF78AFFFFF70AFF8D
:1027800010BD10B5FFF7D6FE0120FFF7EDFF1020BA
:10279000FFF7EAFF10BD10B5FFF7E0FE4720FFF797
:1027A00077FF00240EE0FFF79EFF1E490855032C1B
:1027B00003D10120FFF705FF02E00020FFF701FF32
:1027C000601CC4B2032CEEDBFFF7E4FE052000F032
:1027D000ACFF10BD2DE9F0470446FFF7DCFF1148C0
:1027E00090F80090407800EB09201FFA80F94846E5
:1027F00006F0F0FF824606F05DFE07464FF03332EA
:10280000094B06F017FA054606F026F92060BDE8E8
:10281000F08700009C81214200802142000C014091
:102820004C000020400000203333F33F00B587B058
:1028300001214FF4816001F041FB4FF4004001F0B1
:10284000A1FA0120ADF8040000208DF8070001A9CD
:102850002E4801F077F82E4801F006FE0020029085
:102860008DF80C008DF80D004FF4602004900020CE
:10287000059001208DF8180002A9254801F01BFEE3
:102880000121234801F043FE214801F062FE00BF10
:102890001F4801F063FE0028FAD11D4801F068FED0
:1028A00000BF1B4801F069FE0028FAD107B000BD47
:1028B00010B50446072301222146154801F093FE76
:1028C0000121134801F063FE00BF0221104801F00E
:1028D000CFFF0028F9D00E4801F0ECFE10BD2DE925
:1028E000F04107460C460025002608E03846FFF771
:1028F000DFFF0544052000F018FF701CC6B2A64299
:10290000F4DBB5FBF4F080B2BDE8F081000C0140CF
:1029100000280140014606E0002002E000BF421C02
:10292000D0B26428FADB0A00A1F10101F4D17047AA
:1029300008B54FF40060ADF8000014208DF80300D6
:1029400003208DF802006946FE4800F0FBFF08BD39
:1029500008B54FF48060ADF8000014208DF8030036
:1029600003208DF802006946F64800F0EBFF08BD31
:1029700010B5FFF7EDFFFFF7DBFF4FF40061F14803
:1029800001F08FF84FF48061EE4801F08AF84FF4BF
:102990008061EC4801F083F81E20FFF7BBFF4FF485
:1029A0000061E84801F07BF81E20FFF7B3FF10BD7F
:1029B00008B54FF40060ADF8000004208DF8030066
:1029C0006946E04800F0BEFF08BD70B50446FFF759
:1029D000BFFFFFF7ADFF002621E004F0800028B123
:1029E0004FF40061D74801F05AF804E04FF4006159
:1029F000D44801F056F84FF48061D24801F04FF806
:102A00005020FFF787FF4FF48061CE4801F049F86E
:102A10005020FFF77FFF6006040E701CC6B2082E20
:102A2000DBDBFFF7C5FF4FF48061C64801F037F8E4
:102A30004FF40061C34801F018F8012801D10125C5
:102A400000E000254FF48061BE4801F02AF8FFF74E
:102A50006FFF4FF40061BB4801F021F8284670BDBC
:102A600010B5FFF775FFFFF763FF4FF40061B5483E
:102A700001F015F84FF48061B24801F010F84FF4FE
:102A80000061B04801F00DF81E20FFF743FF4FF43E
:102A90008061AC4801F005F81E20FFF73BFF10BD38
:102AA00010B5FFF7DDFF8020FFF78FFFFE20FFF757
:102AB0008CFFFFF75DFF5020FFF72CFF10BD08B51E
:102AC0004FF44060ADF8000014208DF8030003209F
:102AD0008DF8020069469B4800F034FF4FF4806196
:102AE000984800F0DCFF4FF40061964800F0D7FFF3
:102AF0005020FFF70FFFFFF7D3FF08BD08B54FF4D5
:102B00008060ADF8000004208DF8030069468D4810
:102B100000F018FF08BD10B5FFF71AFFFFF708FF18
:102B20004FF40061874800F0BCFF4FF48061854896
:102B300000F0B5FF5020FFF7EDFE4FF480618148B3
:102B400000F0AFFF5020FFF7E5FE10BD10B5FFF716
:102B5000FFFEFFF7EDFE4FF400617A4800F09FFFA3
:102B60004FF48061774800F09AFF5020FFF7D2FEC3
:102B70004FF48061734800F094FF5020FFF7CAFEC5
:102B800010BD70B50024FFF7E3FEFFF7D1FE4FF450
:102B900000616C4800F083FFFFF70AFF002516E094
:102BA0006006040E4FF48061664800F078FF4FF431
:102BB0000061644800F059FF012801D144F001048C
:102BC0004FF480615F4800F06CFF681CC5B2082DAF
:102BD000E6DBFFF7ADFE4FF400615A4800F05FFFFF
:102BE000204670BD2DE9FF5FFFF7B2FEFFF738FF0B
:102BF0008020FFF7EAFEE320FFF7E7FEFFF730FF54
:102C00008120FFF7E2FE4FF480614E4800F047FF5D
:102C1000FFF774FF02E01420FFF77CFE4FF48061A1
:102C2000484800F022FF0028F5D0FFF7AAFF8146B0
:102C3000FFF771FFFFF7A5FF8246FFF787FFFFF75A
:102C400097FE4AEA092B2BF0030B584606F0C2FD0B
:102C5000019006F02FFC07463B4A3C4B06F000FA79
:102C60003B4A3C4BCDE9020106F03AFB054605F034
:102C7000F3FE0446FFF76CFE204604B0BDE8F09F6B
:102C80002DE9FF5FFFF764FEFFF7EAFE8020FFF704
:102C90009CFEE520FFF799FEFFF7E2FE8120FFF79B
:102CA00094FE4FF48061274800F0F9FEFFF726FFFD
:102CB00002E01420FFF72EFE4FF48061214800F05F
:102CC000D4FE0028F5D0FFF75CFF8146FFF723FF15
:102CD000FFF757FF8246FFF739FFFFF749FE4AEA41
:102CE000092B2BF0030B584606F074FD019006F0FB
:102CF000E1FB0746184A194B06F0B2F90022184BBF
:102D0000CDE9020106F0ECFA054605F0A5FE044601
:102D1000FFF71EFE204604B0BDE8F09F2DE9FF5FDF
:102D2000FFF79EFE8020FFF750FEF320FFF74DFED9
:102D300000BF1420FFF7EEFDFFF792FE8120FFF7A2
:102D400044FE0FE0000C0140619FC6DE07F7653FBF
:102D5000CDCCCCCCCC6C47407644CF7701405F3FA4
:102D6000000018400446012CE3D0FFF70AFF064696
:102D7000FFF7D1FEFFF705FF8146FFF7E7FEFFF7FC
:102D8000F7FD49EA062A2AF0030A504606F022FD1A
:102D9000834606F08FFB07467C4A7D4B06F060F9C0
:102DA0007C4A7D4BCDE9000106F09AFACDE902019B
:102DB00005F052FE0546284604B0BDE8F09F2DE917
:102DC000FF5FFFF74DFE8020FFF7FFFDF520FFF7C7
:102DD000FCFD00BF1420FFF79DFDFFF741FE8120A1
:102DE000FFF7F3FD0446012CF4D0FFF7CAFE0646B8
:102DF000FFF791FEFFF7C5FE8146FFF7A7FEFFF73D
:102E0000B7FD49EA062A2AF0030A504606F0E2FC1A
:102E1000834606F04FFB0746604A614B06F020F9F7
:102E20000022604BCDE9000106F05AFACDE902011B
:102E300005F012FE0546284604B0BDE8F09F10B527
:102E4000FFF70EFE8020FFF7C0FDE720FFF7BDFD76
:102E5000FFF706FE8120FFF7B8FDFFF792FE04465C
:102E6000FFF774FEFFF784FD204610BD70B50446E1
:102E7000FFF7F6FD8020FFF7A8FDE620FFF7A5FD90
:102E80002046FFF7A2FD0546FFF772FD284670BDFC
:102E900010B50446FFF7E4FD8020FFF796FDFA2009
:102EA000FFF793FD0F20FFF790FDFFF7D9FD81207D
:102EB000FFF78BFDFFF765FE6071FFF72CFEFFF754
:102EC00060FEFFF728FEFFF75CFE2071FFF723FE90
:102ED000FFF757FEFFF71FFEFFF753FEE070FFF707
:102EE0001AFEFFF74EFEFFF716FEFFF74AFEA07030
:102EF000FFF711FEFFF745FEFFF728FEFFF738FD4D
:102F0000FFF7AEFD8020FFF760FDFC20FFF75DFDC1
:102F1000C920FFF75AFDFFF7A3FD8120FFF755FDFC
:102F2000FFF72FFE6070FFF7F6FDFFF72AFE207017
:102F3000FFF7F1FDFFF725FEFFF7EDFDFFF721FE9F
:102F4000E071FFF7E8FDFFF71CFEA071FFF7E3FD5E
:102F5000FFF717FEFFF7FAFDFFF70AFD10BD10B5EA
:102F6000FFF740FE10490860FFF78AFE0E494860EF
:102F7000FFF7D4FE0C498860FFF721FF0A49C860BB
:102F800001F11000FFF784FF10BD0000619FC6DE55
:102F900007F7653FCDCCCCCCCC6C47407644CF779F
:102FA00001405F3F000018400401002008B50121E6
:102FB000082000F083FF2020ADF8000010208DF8DD
:102FC000030003208DF8020069468E4800F0BAFC29
:102FD00008BD032001E0411EC8B20028FBD17047A4
:102FE000012001E0411EC8B20028FBD1704700B5A6
:102FF000012085490860FFF7F3FF00208349C1F8ED
:103000009401FFF7E6FF00BD00B501207E4908608E
:10301000FFF7DFFF00207D49C1F89401FFF7E0FFD3
:1030200000BD10B50020784908603C2000F059FB35
:1030300001207649C1F8940100207349086010BD51
:1030400000B5024600230CE002F40000B0F5000FCA
:1030500002D1FFF7D9FF01E0FFF7C9FF5200581C6A
:10306000C3B2182BF0DB00BD70B5044604F47F003A
:10307000010A04F47F4001EB0020E1B2441800256E
:1030800004E02046FFF7DCFF681CC5B2082DF8DB22
:10309000FFF7C7FF70BD0146002901DDC8B27047C8
:1030A0004942C8B2FBE72DE9F04F8DB004460D460A
:1030B000C4F3074AC4F3072BE0B20C90C5F30740F2
:1030C0000B90C5F307200A90E8B209900B98A0EB8B
:1030D0000A0008900A98A0EB0B0007900C99099839
:1030E000401A06900898FFF7D6FF02460798FFF7A8
:1030F000D2FF824203DD0898FFF7CDFF02E0079878
:10310000FFF7C9FF07460698FFF7C5FFB84201DA87
:10311000384602E00698FFF7BEFF0746384606F03D
:1031200059FB0290089806F03DFB0190029906F0C9
:103130005BFA0590384606F04DFB0290079806F0C2
:1031400031FB0190029906F04FFA0490384606F0E0
:1031500041FB0290069806F025FB0190029906F0CB
:1031600043FA8046002647E0304606F033FB0190E4
:10317000059906F077FB029006F0F8FA5044C0B2C9
:103180000B90304606F026FB0190049906F06AFB8E
:10319000029006F0EBFA5844C0B20A90304606F0AE
:1031A00019FB4146019006F05DFB029006F0DEFA45
:1031B0000C990844C0B209900A9801040B9841EA9E
:1031C0000020099940EA01091148C0F80090002048
:1031D000039007E00E480068FFF732FF0398401C99
:1031E000C0B2039003980828F4DBFFF71AFF0A2007
:1031F00000F09BFA701CC6B2BE42B5DB48460DB06B
:10320000BDE8F08F000C01409481214200802142F2
:103210005400002008B503208DF8000000208DF830
:1032200001008DF8020001208DF80300684601F0CE
:10323000B2F808BDF0B503460C461546642093FB72
:10324000F0F0C6B2642093FBF0F700FB1730C1B278
:10325000132E02DD01F16400C1B20846CF1701EB65
:10326000977701EBA707BAB2072092FBF0F700FBB4
:10327000172082B25719601EDFF808C31CF800003F
:10328000384482B2CF1701EB9777BF10A1EB8707C5
:103290001FB9032C01DA501E82B2072092FBF0F70F
:1032A00000FB1720C0B2F0BD0146CA1701EB9272B5
:1032B0009210A1EB820292B9642091FBF0F200FB24
:1032C000121050B94FF4C87091FBF0F200FB1210CD
:1032D00008B9012070470020FCE70120FAE7002030
:1032E000F8E770B500260024002501F0CDFB064666
:1032F000A548B6FBF0F4A5480088A0423CD0A349FD
:103300000C8040F2B27510E02846FFF7CDFF40B1C7
:10331000B4F5B77F02D3A4F5B77404E0681C85B296
:1033200006E0A4F26D14681C85B2B4F5B67FEBD844
:1033300000BF97488580002516E095498888FFF7EB
:10334000B3FF30B1012D04D11D2C01D31D3C09E088
:103350000CE09048405DA04203D88E48405D241A9E
:1033600000E003E0681C85B21C2CE6D200BF681C9C
:1033700087498871601CC8718348B6FBF0F100FB77
:1033800011644FF46160B4FBF0F0814908704FF4B0
:103390006160B4FBF0F100FB11403C21B0FBF1F0A7
:1033A0007B4948704FF46160B4FBF0F100FB1140C1
:1033B0003C21B0FBF1F201FB1200754988700B460D
:1033C000DA7999799888FFF735FF714908720020FA
:1033D00070BD2DE9F05F06460F4690469946DDE93F
:1033E0000AAB002440F2B270864203DB40F63300A1
:1033F000864202DD0120BDE8F09F40F2B2750AE08E
:103400002846FFF751FF10B16348044401E06348C8
:103410000444681C85B2B542F2DB781EC7B20025B1
:1034200010E05C48405D40F2A321484304EBC01427
:103430003046FFF739FF18B1012D01D1524804443D
:10344000681C85B2BD42ECDBA8F1010040F2A3216B
:10345000484304EBC014C9EB4910C0EB092004EB4E
:103460000014CAEB0A1004EB80045C4401214FF005
:10347000C05000F030FD012001F08BFA204601F031
:103480000CFB01F03DFBFFF72CFF0020B3E71CB560
:10349000002401214FF0C05000F01DFD012001F07B
:1034A00078FA042001F03DFA45F2500188423ED0FE
:1034B00001F002FA012000F06EFC04E0601CC4B2CE
:1034C0000A2000F032F9412000F0CDFB0028F5D0B1
:1034D000FA2C01DB01201CBD4FF4807000F077FC5A
:1034E000012000F07AFC01F00BFB01F012FB01213E
:1034F000084601F0A9FA01F003FB01F0B2FA47F621
:10350000FF7001F0D7FA01F0FBFA002000900C23C5
:103510000F220521019040F2E270FFF75AFF01F0FF
:10352000A9FA45F25001042001F0EFF907E001F09B
:10353000F0FA0121084601F087FA01F0E1FAFFF7FD
:1035400069FEFFF7CEFE0020C5E710B5012001F0AF
:1035500005FB48B1FFF7C5FE1148006808B9012016
:1035600000E000200E490860022001F0F7FA10B1D7
:10357000022001F003FB052001F000FB01F0C0FA7E
:1035800010BD0000A69D00088051010058000020D9
:103590001C010020B29D00080085E2018033E1019A
:1035A000B00121420EB5FEF78DFA0121084600F068
:1035B00085FC0B21002000F0DBFA4FF40060019045
:1035C00000208DF808000C208DF8090001208DF8EE
:1035D0000A0001A802F07EFB0A21002000F0C8FAD0
:1035E0004FF48060019001A802F074FB09210020D3
:1035F00000F0BEFA4FF40070019001A802F06AFBDF
:103600000821002000F0B4FA4FF48070019001A866
:1036100002F060FB0021084600F0AAFA01200190A8
:1036200008208DF8090001A802F054FB06208DF84F
:10363000000002208DF801008DF8020001208DF8B5
:103640000300684600F0A7FE17208DF80000022056
:103650008DF8010001208DF802008DF80300684606
:1036600000F099FE28208DF8000002208DF801005E
:1036700000208DF8020001208DF80300684600F05C
:103680008AFE0EBD70B505460C4645F2555002F057
:10369000A1FB284602F0A1FB204602F0A1FB02F0AC
:1036A000A2FB02F0A5FB70BD10B502F09CFB10BDA3
:1036B00010B56FF0040000F0B8FE2E4800682E49E7
:1036C000B0FBF1F02D4908700846007800EB40018E
:1036D000C1EBC0104FF6FF7101EAC0002849088015
:1036E00010BD0146254A12784A434FF0E0235A6143
:1036F00000229A611A46126942F001021A6100BF63
:103700004FF0E022106900F001021AB100F480329B
:10371000002AF5D04FF0E022126922F001024FF0AA
:10372000E0231A6100229A6170470146144A128808
:103730004A434FF0E0235A6100229A611A46126907
:1037400042F001021A6100BF4FF0E022106900F060
:1037500001021AB100F48032002AF5D04FF0E022C5
:10376000126922F001024FF0E0231A6100229A61EF
:10377000704700002800002000127A005A00002044
:103780005C000020014600BF704700BF2B4A128832
:1037900002F04002002AF9D0C2B2284B1B1D1A8049
:1037A000704710B586B004460121042000F086FB66
:1037B0000121480400F08FFB0820ADF8140003201D
:1037C0008DF8160004208DF8170005A91C4800F09C
:1037D000B9F80420ADF8140018208DF8170005A9D9
:1037E000174800F0AFF826208DF8000003208DF870
:1037F00001008DF8020001208DF80300684600F0FA
:10380000CAFD01940020ADF80800ADF80A00ADF83B
:103810000C00ADF810000C20ADF80E0001A907480F
:1038200000F0F3FB012240F22551044800F085FC32
:103830000121024800F075FC06B010BD00440040B4
:10384000000801400948804709480047FEE7FEE7B5
:10385000FEE7FEE7FEE7FEE7FEE7FEE7FEE7FEE740
:1038600004480549054A064B70470000E317000865
:10387000ED000008500200205008002050040020F5
:103880005004002010B50446CC48844208D10121E0
:10389000042000F02DFB0021042000F029FB46E06D
:1038A000C748844208D10121082000F021FB0021F3
:1038B000082000F01DFB3AE0C248844208D10121F3
:1038C000102000F015FB0021102000F011FB2EE06D
:1038D000BD48844208D10121202000F009FB0021CD
:1038E000202000F005FB22E0B848844208D10121E5
:1038F000402000F0FDFA0021402000F0F9FA16E027
:10390000B348844208D10121802000F0F1FA00215F
:10391000802000F0EDFA0AE0AE48844207D1012190
:10392000801500F0E5FA0021A01500F0E1FA10BDC5
:1039300010B50121084600F0DBFA0021012000F05B
:10394000D7FA10BD2DE9F0410246002500260020DF
:1039500000230024002791F803C00CF00F0591F814
:1039600003C00CF0100CBCF1000F03D091F802C0A2
:103970004CEA050591F800C0BCF1000F31D0146885
:1039800000202BE04FF0010C0CFA00F3B1F800C05E
:103990000CEA03069E4220D183004FF00F0C0CFA74
:1039A00003F7BC4305FA03FC4CEA040491F803C096
:1039B000BCF1280F06D14FF0010C0CFA00FCC2F844
:1039C00014C00AE091F803C0BCF1480F05D14FF0D4
:1039D000010C0CFA00FCC2F810C0401C0828D1D31E
:1039E0001460B1F800C0BCF1FF0F34DD5468002052
:1039F0002EE000F1080C4FF0010808FA0CF3B1F8C2
:103A000000C00CEA03069E4221D183004FF00F0C48
:103A10000CFA03F7BC4305FA03FC4CEA040491F8E2
:103A200003C0BCF1280F05D100F1080C08FA0CF80E
:103A3000C2F8148091F803C0BCF1480F07D100F11F
:103A4000080C4FF0010808FA0CF8C2F81080401C6E
:103A50000828CED35460BDE8F0814FF6FF71018095
:103A6000022181700421C1707047024600209368D2
:103A70000B400BB1012000E0002070470146886830
:103A800080B2704702460020D3680B400BB1012082
:103A900000E0002070470146C86880B270470161AD
:103AA0007047416170470AB1016100E041617047B0
:103AB000C16070474FF480320A4382618161826144
:103AC00082698269704702460020434B18684FF6AE
:103AD0008073184040EA021008433F4B186070475B
:103AE0003E49C8617047F0B50A4600230024002112
:103AF000002500F00046B6F1004F02D1364EF169C4
:103B000001E0354E7168C0F3034583B200F44016FE
:103B1000B6F5401F08D121F070612F4E766826F06F
:103B200070662D4F7E6012E000F48016B6F5801F9F
:103B300006D1032606FA05F4A14341F0706106E0C0
:103B4000460D360103FA06F6B14341F0706122B129
:103B5000460D360103FA06F6314300F00046B6F191
:103B6000004F02D11C4EF16101E01B4E7160F0BDAF
:103B700030B500228B071C0F0F2303FA04F2164BFB
:103B800008338C1053F824309343134C08348D10B1
:103B900044F8253023468C1053F824308C07240F2A
:103BA00000FA04F423430C4C08348D1044F82530FB
:103BB00030BD0A49DC310860704700000008014050
:103BC000000C0140001001400014014000180140A9
:103BD000001C014000200140000001400000204284
:103BE000DF48006840F00100DD4908600846406891
:103BF000DC490840DA49486008460068DA4908406C
:103C0000D74908600846006820F48020086008460C
:103C1000406820F4FE0048604FF41F008860704741
:103C2000CF49096821F48031CD4A116011460968F5
:103C300021F480211160B0F5803F03D0B0F5802FD2
:103C40000ED106E0C649096841F48031C44A1160CA
:103C500007E0C349096841F4A021C14A116000E0AE
:103C600000BF00BF704710B50146002200230020AE
:103C70004A11012A02D1BA4C236806E0022A02D175
:103C8000B74C236A01E0B64C636A01F01F020124BD
:103C900094401C400CB1012000E0002010BD38B55C
:103CA000002000900024002500BF3120FFF7DBFF3B
:103CB00005460098401C00900098B0F5A06F01D018
:103CC000002DF2D03120FFF7CEFF08B1012400E033
:103CD0000024204638BD01460020A14A106820F08B
:103CE000F80040EAC10010607047A04908607047C2
:103CF000024600209A4B586820F47C1042EA0103E7
:103D00001843974B586070479849086670470146BA
:103D10000020934A506820F0030008435060704729
:103D20008F48406800F00C007047014600208C4A24
:103D3000506820F0F00008435060704701460020B2
:103D4000874A506820F4E06008435060704701469D
:103D50000020834A506820F4605040EAC10050605F
:103D6000704729B17E4A527A02437D4B5A7204E071
:103D70007B4A527A82437A4B5A7270477B49D831D8
:103D80000860704701460020754A506820F44040A2
:103D90000843506070470021714A20321170704A08
:103DA00082F82010012802D004280AD104E0012161
:103DB0006B4A2032117005E00521694A20321170EA
:103DC00000E000BF00BF7047694908607047644960
:103DD000096A0143624A11627047654944390860C3
:103DE000704730B500210022002400235C4D6D682F
:103DF00005F00C0121B1042905D0082923D105E0E3
:103E00005C4D056022E05B4D05601FE0544D6D6820
:103E100005F47012524D6D6805F48034022505EBEF
:103E200092421CB9544D554305600BE04C4D6D68F2
:103E300005F400351DB1504D5543056002E04D4D70
:103E40005543056002E04B4D056000BF00BF444D87
:103E50006D6805F0F0010909484D6B5C0568DD40AF
:103E600045603F4D6D6805F4E061090A434D6B5CA8
:103E70004568DD4085603A4D6D6805F46051C90ABA
:103E80003E4D6B5C4568DD40C560354D6D6805F4A1
:103E90004041890B3A4D6B5CC568B5FBF3F5056194
:103EA00030BD29B12E4A526902432D4B5A6104E0BC
:103EB0002B4A526982432A4B5A61704729B1284ADA
:103EC00092690243264B9A6104E0254A9269824333
:103ED000234B9A61704729B1214AD2690243204B92
:103EE000DA6104E01E4AD26982431D4BDA617047F1
:103EF00029B11B4AD2680243194BDA6004E0184A20
:103F0000D2688243164BDA60704729B1144A1269AD
:103F10000243134B1A6104E0114A12698243104BA9
:103F20001A61704712494039086070470F49C864E8
:103F300070470B49C87170470948406A40F080706B
:103F400007494862704701460020054A92680A40C6
:103F50000AB1012000E000207047014988727047D3
:103F6000001002400000FFF8FFFFF6FE0000424292
:103F70008004424200127A0000093D0066000020E1
:103F80007600002010B50446FB48844209D1012187
:103F90008803FFF7ADFF00214FF48040FFF7A8FF33
:103FA00032E0F648844209D101214804FFF7ADFF11
:103FB00000214FF40030FFF7A8FF25E0F0488442CD
:103FC00009D101218804FFF7A0FF00214FF48020D0
:103FD000FFF79BFF18E0EB48844209D10121C80498
:103FE000FFF793FF00214FF40020FFF78EFF0BE057
:103FF000E548844208D101210805FFF786FF00212A
:104000004FF48010FFF781FF10BD2DE9F04786B017
:1040100005460E460024A24600BFA1460027B089EF
:1040200000B100BF2F462C8A4CF6FF700440F08888
:1040300004432C82AC894EF6F3100440B0883189D9
:104040000843718908430443AC81AC8A4FF6FF40B2
:104050000440B0890443AC8201A8FFF7C2FEC64801
:10406000874202D1DDF810A001E0DDF80CA0A8899C
:1040700000F4004040B10AEBCA0000EB0A103168BE
:104080004900B0FBF1F807E00AEBCA0000EB0A10A8
:1040900031688900B0FBF1F86420B8FBF0F004014E
:1040A0002009642101FB1089A88900F4004040B177
:1040B000322000EBC900B0FBF1F000F00700044330
:1040C00008E0322000EB09106421B0FBF1F000F0B1
:1040D0000F0004432C8106B0BDE8F0874FF4165161
:1040E000016000218180C18001810C21418100217A
:1040F0008181704710B502460020108A4FF2FF03FD
:1041000018400B884C8823438C882343CC88234356
:104110001843108210BD0021018041808180C18040
:10412000704721B1828942F40052828104E0828981
:104130004DF6FF731A4082817047F0B503460024A4
:1041400000260025002040F66A17B94200D100BFC2
:104150001846C1F3421401F01F06012707FA06F5BD
:10416000012C01D10C3004E0022C01D1103000E010
:1041700014301AB107682F43076002E00768AF43A5
:104180000760F0BD1AB1838A0B43838202E0838A01
:104190008B4383827047028A4FF6F0731A40028283
:1041A000028A0A430282704782894FF2FF731A40E3
:1041B000828182890A438281704721B1828942F0DB
:1041C0000202828104E082894FF6FD731A408281E7
:1041D0007047028A4FF6DF731A400282028A0A434E
:1041E0000282704721B1028A42F48042028204E0D6
:1041F000028A4BF6FF731A4002827047C1F308022D
:104200008280704701468888C0F308007047818922
:1042100041F0010181817047028BD2B20283028B8F
:1042200042EA012202837047028B02F47F4202833A
:10423000028B0A430283704721B1828A42F0200236
:10424000828204E0828A4FF6DF731A4082827047CE
:1042500021B1828A42F01002828204E0828A4FF603
:10426000EF731A408282704721B1828A42F00802BD
:10427000828204E0828A4FF6F7731A408282704786
:1042800021B1828942F40042828103E08289C2F333
:104290000E028281704721B1828A42F400628282DA
:1042A00004E0828A4FF2FF731A4082827047828A4A
:1042B0004FF6FB731A408282828A0A4382827047D9
:1042C00021B1828A42F00202828204E0828A4FF6A1
:1042D000FD731A408282704702460020B1F5007FCC
:1042E00000D100BF13880B400BB1012000E000207B
:1042F000704701F40072B2F5007F00D100BFCA43DD
:104300000280704770B5024600240023002500207B
:1043100040F66A16B14200D100BFC1F3421501F068
:104320001F03012606FA03F3012D02D196893340BB
:1043300006E0022D02D1168A334001E0968A33400E
:104340000C12012606FA04F41688344013B10CB19D
:10435000012000E0002070BD10B50022002340F6CF
:104360006A14A14200D100BF0A1201249440A3B2F2
:10437000DC43048010BD00000038014000440040D0
:1043800000480040004C00400050004031490143CB
:10439000314A1160704770B5002100230F22C478A4
:1043A00004B32D4C246804F4E064C4F5E064210AED
:1043B000C1F10403CA40447804FA03F1847814403C
:1043C00021430901254C0678A155047804F01F0506
:1043D0000124AC4005786D11AD0005F1E025C5F86C
:1043E000004109E0047804F01F050124AC401C4D95
:1043F0000678761145F8264070BD1A4A0A400243F5
:10440000154B1B1F1A60704739B1134A121D1268F1
:104410000243114B1B1D1A6006E00F4A121D126861
:1044200082430D4B1B1D1A607047042808D14FF0C2
:10443000E021096941F004014FF0E022116107E039
:104440004FF0E021096921F004014FF0E0221161F1
:10445000704700000000FA050CED00E000E400E009
:1044600080E100E080FFFF1F10B50446FA48844257
:1044700008D101214015FFF73BFD00216015FFF732
:1044800037FD17E0F548844208D101210015FFF7F8
:104490002FFD00212015FFF72BFD0BE0F048844293
:1044A00008D10121C803FFF723FD00214FF400408C
:1044B000FFF71EFD10BD30B50246002000235068F6
:1044C000E84C20400D790C6844EA052420435060F4
:1044D0009068E54C2040D1E902542C434D7944EAE0
:1044E000450420439060D06A20F470000C7C641E68
:1044F000E4B2234340EA0350D06230BD00210160A2
:10450000017141718160C16001210174704721B165
:10451000826842F00102826003E0826822F00102B8
:104520008260704721B1826842F48072826003E049
:10453000826822F480728260704710B50023CBB28B
:104540001AB144681C43446002E044689C434460E0
:1045500010BD816841F0080181607047014600206C
:104560008A6802F008020AB1012000E000207047CA
:10457000816841F0040181607047014600208A682B
:1045800002F004020AB1012000E00020704721B1CE
:10459000826842F4A002826003E0826822F4A002F2
:1045A00082607047014600208A6802F480020AB1E6
:1045B000012000E00020704710B50A4600210023CA
:1045C000416821F46041531E41EA4331416010BD0E
:1045D00021B1426842F40062426003E0426822F482
:1045E000006242607047F0B504460D46002000218D
:1045F000092D11DDE068A5F10A0606EB460707263E
:1046000006FA07F18843A5F10A0606EB460603FA07
:1046100006F10843E0600CE0206905EB450707263A
:1046200006FA07F1884305EB450603FA06F108434D
:104630002061072A0FDA606B561E06EB86071F26DD
:1046400006FA07F18843561E06EB860605FA06F1C0
:104650000843606322E00D2A0FDA206BD61F06EBB9
:1046600086071F2606FA07F18843D61F06EB860643
:1046700005FA06F10843206310E0E06AA2F10D0696
:1046800006EB86071F2606FA07F18843A2F10D06FE
:1046900006EB860605FA06F10843E062F0BD21B19B
:1046A000826842F48012826003E0826822F4801201
:1046B000826070470146C86C80B2704766484C30D3
:1046C0000068704721B1426842F48062426003E0B2
:1046D000426822F480624260704721B1426842F42D
:1046E0008052426003E0426822F480524260704788
:1046F0000A460021816821F4E0411143816070473E
:1047000021B1826842F40042826003E0826822F4B0
:1047100000428260704721B1826842F402128260D6
:1047200003E0826822F40212826070470146002092
:104730008A6802F400120AB1012000E000207047EC
:10474000F0B504461546002000220026092911DD97
:10475000E068A1F10A0707EB470C072707FA0CF2FC
:104760009043A1F10A0707EB470703FA07F210434A
:10477000E0600CE0206901EB410C072707FA0CF21E
:10478000904301EB410703FA07F210432061A06B4D
:10479000C0F30156EF1C06F1010CA7EB0C0707EB69
:1047A000870C1F2707FA0CF29043EF1C06F1010C4F
:1047B000A7EB0C0707EB870701FA07F21043A0638A
:1047C000F0BD10B50A4600210023816B21F4401191
:1047D000531E41EA0351816310BD08B500230093C5
:1047E0000090009B0B440093009B1A6008BD08B525
:1047F000024600200090009201F12800009B18441E
:1048000000900098006880B208BD0A460021416807
:10481000164B1940114341607047416282627047F4
:104820000A460021416821F01F0111434160704791
:1048300040B109490831096841F40001064A0832CB
:10484000116007E004490831096821F40001024AB7
:104850000832116070470000002401400028014028
:10486000003C0140FFFEF0FFFDF7F1FFFFFD3FFFC1
:104870000246002013680B400BB1012000E000202D
:104880007047CA430260704770B50246002000239B
:1048900000240B125568CEB205EA060415681D40C7
:1048A00015B10CB1012000E0002070BD00220A12F9
:1048B000D34303607047000010B50120FFF732FBBF
:1048C0000020FFF72FFB10BD2A49086070472949D7
:1048D000091F086070472749843108607047014606
:1048E0000020254A10884FF67F4210400843224A94
:1048F00010807047014600201F4A10884FF68072D2
:10490000104008431C4A1080704708B500220092EE
:10491000194A2C3A0092009A02440092009A1160BF
:1049200008BD08B501460020009013482C380090BF
:104930000098084400900098008808BD0D489C30FD
:104940000068C0B270470C480830008840F0010091
:1049500009490831088070470648A0300068C0B295
:10496000704705480830008840F0020002490831CD
:104970000880704704860D422C6C004010B5012160
:104980000807FFF7C2FA00214FF08050FFF7BDFA89
:1049900010BD2A49086270472849086170470146DE
:1049A0000020274A106820F0E0000843106070479C
:1049B0002249A0310860704710B502460020204B04
:1049C000186820F00300104318601E4B1B6843F06A
:1049D00004031C4C2360012901D130BF00E020BF3B
:1049E000184B1B6823F00403164C236010BD1448B9
:1049F000006840F00400124908600846006840F072
:104A0000020008600F48006840F004000D4908608B
:104A100000BF00BF30BF704701460020084A5268FF
:104A20000A400AB1012000E00020704704490968EB
:104A300041EA8001024A11607047000000000E4206
:104A40000070004010ED00E029B1504A1288024386
:104A50004E4B1A8004E04D4A128882434B4B1A8019
:104A600070474A48001D008840F010004749091D62
:104A7000088070474548001D00884FF6EF710840D8
:104A80004249091D08807047002140481C300188B8
:104A9000001F008841EA0040704700B50246FFF75A
:104AA000E0FF100C394918310880091D0A80FFF712
:104AB000E1FF00BD00B50246FFF7D3FFC2F303409C
:104AC000324908310880091D0A80FFF7D3FF00BD75
:104AD00000B50246FFF7C5FF100C2C4920310880B5
:104AE000091D0A80FFF7C6FF00BD002027491031CD
:104AF00009880907080B25491431098808437047BC
:104B000000BF2248001D008800F020000028F8D0D7
:104B100070471E48001D00884FF6F77108401B497A
:104B2000091D088000BF1948001D008800F008001A
:104B30000028F8D0704701460020144A121D128840
:104B40000A400AB1012000E0002070470F49091D0A
:104B5000098881430D4A121D1180704701460020CB
:104B60000A4A121D12880A40D0B2084A12880A4026
:104B700012B108B1012000E0002070470349091D6F
:104B800009888143014A121D1180704700280040A6
:104B900010B50446BE48844208D101218014FFF7B5
:104BA000A7F90021A014FFF7A3F916E0B948844241
:104BB00008D101210014FFF7A8F900212014FFF704
:104BC000A4F90AE0B448844207D10121C013FFF7D9
:104BD0009CF90021E013FFF798F910BD10B50022F1
:104BE000028802F441520B884C8823438C8823436B
:104BF000CC8823430C8923434C8923438C8923434A
:104C0000CC8923431A430280838B4FF2FF742340E5
:104C100083830B8A038210BD2DE9F04F85B00546D2
:104C20000C464FF0000902274FF000084FF0010B2F
:104C30000026B246A88B4FF240010840A88302200C
:104C40002884B5F81C90A068022801D100BF38E084
:104C5000A08810B94FF0010B01E04FF0020B8D4816
:104C6000854200D100E000BF6846FFF7BAF8DDF8E2
:104C700000A0E088B0F5007F0AD14FEA1A2000EBCF
:104C800080004000A168B0FBF1F0401D86B20BE04F
:104C90004FEA4B10BAFBF0F000EB80004000A16837
:104CA000B0FBF1F0401D86B20A20B6FBF0F606F02C
:104CB0000108A6EB0800C0F34F074FF6FF7000EAAB
:104CC0000828022F01DBFF2F02DD02274FF000082A
:104CD000E08840EA080038432884A088A189084376
:104CE000618808432188084340F4006040EA0909CC
:104CF000A5F81C9005B0BDE8F08F0021018041802F
:104D00008180C180018141818181C181072101822E
:104D100070470021018041808180C1800221816033
:104D200000218181704721B1028842F04002028057
:104D300004E002884FF6BF731A400280704721B129
:104D4000828B42F48062828304E0828B4FF6FF33D1
:104D50001A408283704730B5002400230C110125CE
:104D6000A540ABB21AB185881D43858002E08588D5
:104D70009D43858030BD1AB183880B43838002E058
:104D800083888B438380704781817047014688897F
:104D900070474FF6FF62914204D0028842F480725D
:104DA000028004E002884FF6FF631A4002807047D9
:104DB00021B1828842F00402828004E082884FF6AA
:104DC000FB731A408280704702884FF2FF731A40CB
:104DD000028002880A4302807047018841F48051B2
:104DE0000180704721B1028842F40052028004E041
:104DF00002884DF6FF731A40028070470246002079
:104E0000012901D0108B00E0908A70470146088A82
:104E10007047B1F5804F04D1028842F4804202808D
:104E200004E002884BF6FF731A4002807047024686
:104E3000002013890B400BB1012000E000207047D7
:104E4000CA4302817047F0B50246002000240023C7
:104E5000002501F00F070126BE40B4B20B11012658
:104E60009E40B3B2968806EA03051689264016B11D
:104E70000DB1012000E00020F0BD10B5002201F0CE
:104E80000F040123A3409AB2D343038110BD000055
:104E90000030014000380040003C004010B504469E
:104EA000FE48844208D10121C014FFF721F80021F7
:104EB000E014FFF71DF8C4E0B4F1804F08D10121E0
:104EC0000846FFF722F800210120FFF71EF8B8E09E
:104ED000F348844208D101210220FFF716F800218F
:104EE0000220FFF712F8ACE0EE48844208D101211D
:104EF0000420FFF70AF800210420FFF706F8A0E0DD
:104F0000E948844208D101210820FEF7FEFF002174
:104F10000820FEF7FAFF94E0E448844208D101211A
:104F20001020FEF7F2FF00211020FEF7EEFF88E0D0
:104F3000DF48844208D101212020FEF7E6FF00214E
:104F40002020FEF7E2FF7CE0DA48844208D101210C
:104F50004014FEF7CDFF00216014FEF7C9FF70E09A
:104F6000D548844209D10121C804FEF7C1FF0021C0
:104F70004FF40020FEF7BCFF63E0D048844209D123
:104F800001210805FEF7B4FF00214FF48010FEF761
:104F9000AFFF56E0CA48844209D101214805FEF717
:104FA000A7FF00214FF40010FEF7A2FF49E0C5481B
:104FB000844208D101214020FEF7A7FF00214020B4
:104FC000FEF7A3FF3DE0C048844208D101218020C4
:104FD000FEF79BFF00218020FEF797FF31E0BB48E2
:104FE000844208D101218015FEF78FFF0021A01512
:104FF000FEF78BFF25E0B648844209D10121080461
:10500000FEF776FF00214FF48030FEF771FF18E0C5
:10501000B048844209D101214804FEF769FF00210C
:105020004FF40030FEF764FF0BE0AB48844208D138
:1050300001218804FEF75CFF00214FF48020FEF779
:1050400057FF10BD00220288944B98420ED0994B16
:1050500098420BD0B0F1804F08D0914B984205D0C8
:10506000904B984202D0904B984204D14FF68F73E8
:105070001A404B881A438D4B984207D08C4B98426C
:1050800004D04FF6FF431A40CB881A4302808B8826
:1050900083850B880385814B98420BD0854B9842C2
:1050A00008D08B4B984205D08A4B984202D08A4B4D
:1050B000984201D10B7A038601238382704770B531
:1050C000002400220023058C4FF6FE76354005842F
:1050D000028C8388048B4FF68F752C40B51E2C40B4
:1050E0000D882C43751E2A400D892A434D882A437A
:1050F0006A4DA8420BD06F4DA84208D0744DA8420B
:1051000005D0744DA84202D0734DA84213D14FF67A
:10511000F7752A404D892A434FF6FB752A408D8842
:105120002A434FF6FF652B404FF6FF552B408D89E4
:105130002B43CD892B4383800483CD8885860284CD
:1051400070BD70B5002400220023058C4FF6EF7669
:1051500035400584028C8388048B48F6FF752C400B
:105160004FF6FF452C400D884FF6FF7606EA0525E1
:105170002C434FF6DF752A400D8906EA05152A43B0
:105180004D8806EA05152A43444DA84202D0494DF0
:10519000A8421DD14FF67F752A404D894FF6FF7604
:1051A00006EA05152A434FF6BF752A408D8806EAA0
:1051B00005152A434FF6FF352B404FF2FF752B4064
:1051C0008D8906EA85052B43CD8906EA85052B43A3
:1051D00083800483CD880587028470BD70B5002468
:1051E00000220023058C4FF6FF6635400584028CB3
:1051F0008388848B4FF68F752C404FF6FC752C40BE
:105200000D882C434FF6FF552A400D894FF6FF7647
:1052100006EA05252A434D8806EA05252A431F4D3F
:10522000A84202D0234DA8421DD14FF2FF752A405B
:105230004D894FF6FF7606EA05252A434FF6FF35DE
:105240002A408D8806EA05252A434EF6FF752B4035
:105250004DF6FF752B408D8906EA05152B43CD8948
:1052600006EA05152B4383808483CD8885870284D5
:1052700070BD70B5002200230024058C4EF6FF7629
:1052800035400584038C8488828B48F6FF752A405C
:105290004FF6FF452A400D8820E00000002C014019
:1052A0000004004000080040000C004000100040D6
:1052B0000014004000340140004C01400050014007
:1052C0000054014000180040001C00400020004035
:1052D0000040014000440140004801404FF6FF7685
:1052E00006EA05252A434DF6FF752B400D8906EA8F
:1052F00005352B434D8806EA05352B43FA4DA84268
:1053000002D0FA4DA84208D14BF6FF752C408D898A
:105310004FF6FF7606EA85152C4384808283CD887C
:10532000A0F84050038470BD828B4FF2FF331A40C7
:105330008283828B4FF6FF7303EA01231A43828331
:105340007047F0B50C461546002200210026078C58
:105350004EF6FF7C07EA0C070784828B018C4FF620
:10536000FF7707EA043640F6FF473A404FF6FF77EB
:1053700007EA05273A434FF6FF7707EA03373A4330
:10538000D94FB8420ED0D94FB8420BD0B0F1804FB0
:1053900008D0D74FB84205D0D64FB84202D0D64F2A
:1053A000B84206D14DF6FF77394046F4805739436D
:1053B00005E047F6FF57394044F48057394382836C
:1053C0000184F0BD828B4FF6F3731A408283828B87
:1053D0000A4382837047F0B50C461546002200212F
:1053E0000026078C4FF6FF6C07EA0C070784828BB8
:1053F000018C4FF6FF7707EA04264FF60C773A4008
:105400004FF6FF7707EA03172F433A43B64FB842E8
:105410000ED0B64FB8420BD0B0F1804F08D0B44F89
:10542000B84205D0B34FB84202D0B34FB84206D10C
:105430004FF6FF57394046F48077394305E04FF285
:10544000FF57394044F48077394382830184F0BDAB
:10545000028B4FF2FF331A400283028B4FF6FF7329
:1054600003EA01231A4302837047F0B50C46154640
:10547000002200210026078C4FF6EF7C07EA0C077C
:105480000784028B018C4FF6FF7707EA041640F67B
:10549000FF473A404FF6FF7707EA03373A434FF6A4
:1054A000FF7707EA05273A438F4FB8420ED08F4F58
:1054B000B8420BD0B0F1804F08D08D4FB84205D024
:1054C0008C4FB84202D08C4FB84206D14FF6DF77EE
:1054D000394046F01007394305E04FF65F77394011
:1054E00044F01007394302830184F0BD028B4FF66C
:1054F000F3731A400283028B0A4302837047F0B5AC
:105500000C46154600220021068C4FF6FE773E40E1
:105510000684028B018C4FF60C7632407E1C06EA24
:1055200003162E433243704EB0420ED06F4EB0423F
:105530000BD0B0F1804F08D06D4EB04205D06D4E0B
:10554000B04202D06C4EB04206D14FF6FD763140EB
:1055500044F00106314305E04FF6F576314044F062
:105560000106314302830184F0BD70B505460C4647
:105570005D4885420ED05D4885420BD0B5F1804F25
:1055800008D05B48854205D05A48854202D05A4827
:10559000854200D100E000BF208850B92389A2884D
:1055A00061882846FFF7ABFFE1882846FFF79EFF9A
:1055B00025E0208804280AD12389A288618828460A
:1055C000FFF753FFE1882846FFF742FF17E02088E6
:1055D00008280AD12389A28861882846FFF7FBFEA4
:1055E000E1882846FFF7EEFE09E02389A28861885A
:1055F0002846FFF7A6FEE1882846FFF795FE70BD16
:105600002DE9F04105460C4600260127608808B9BF
:10561000022600E00026A088012801D1022700E030
:1056200001272088A0B92389A28861882846FFF72E
:1056300066FFE1882846FFF759FF23893A4631463D
:105640002846FFF712FFE1882846FFF701FF13E025
:105650002389A28861882846FFF707FFE18828464A
:10566000FFF7F6FE23893A4631462846FFF747FF03
:10567000E1882846FFF73AFFBDE8F0810A884B88A9
:105680001A438B881A43CB881A430B891A434B89D8
:105690001A438B891A43A0F8442070474FF6FF71D4
:1056A000818000210180C18041800172704700210A
:1056B000018041808180C180018141818181C181DE
:1056C0007047002101804180012181800021C1803B
:1056D000018170470021018041808180C18001816A
:1056E0004181818170470000002C0140003401405D
:1056F0000004004000080040000C004021B1028876
:1057000042F00102028004E002884FF6FE731A4064
:105710000280704731B1B0F8442042F40042A0F852
:10572000442005E0B0F84420C2F30E02A0F8442063
:1057300070471AB183890B43838102E083898B43CD
:10574000838170478182704741EA0203A0F84830A4
:1057500070471AB183890B43838102E083898B43AD
:105760008381704701894FF6F872114001817047BB
:105770000A46002101894FF68F73194011430181B8
:10578000704730B504460D4629462046FFF7F0FF26
:10579000208940F00700208130BD2DE9F04104460A
:1057A0000D4616461F46602D06D13B460122314666
:1057B0002046FFF75AFE05E03B46012231462046CF
:1057C000FFF79DFE29462046FFF7D2FF208940F0D3
:1057D00007002081BDE8F08130B50C460021018929
:1057E000C9B24FF6FF7505EA032515432543294342
:1057F000018130BD2DE9F04105460E461746984619
:10580000002443463A4631462846FFF7E5FF2C89F7
:105810004FF6F870044044F007044FF68F700440D0
:1058200044F070042C81BDE8F081F0B504460D46CB
:1058300016461F463B46324629462046FFF7CCFF18
:10584000208940F480402081F0BD0185828270472C
:105850000A46002101884FF68F73194011430180D9
:105860007047F0B50C4615461E4600210022002365
:105870000189028B038C4FF6F877394021434FF6AC
:10588000FC473A4040F201173A434FF6DD773B4080
:105890004FF6FF7707EA06172F433B430181028348
:1058A0000384F0BD0A460021018B4FF68F73194027
:1058B0001143018370470A460021018B48F6FF73AC
:1058C00019404FF6FF7303EA02231943018370471F
:1058D0000A460021818B4FF68F7319401143818353
:1058E00070470A460021818B48F6FF7319404FF636
:1058F000FF7303EA022319438183704721B10288B1
:1059000042F08002028004E002884FF67F731A4062
:105910000280704721B1828842F00402828004E054
:1059200082884FF6FB731A408280704721B18288CB
:1059300042F00802828004E082884FF6F7731A4032
:105940008280704721B1828842F00102828004E0A7
:1059500082884FF6FE731A40828070470A46002103
:10596000018B4FF6F77319401143018370470A46C4
:105970000021018B4FF2FF7319404FF6FF7303EACA
:1059800002231943018370470A460021818B4FF699
:10599000F77319401143818370470A460021818BB8
:1059A0004FF2FF7319404FF6FF7303EA02231943C6
:1059B000818370470A460021018B4FF6FB73194023
:1059C0001143018370470A460021018B4FF6FF33D4
:1059D00019404FF6FF7303EA02231943018370470E
:1059E0000A460021818B4FF6FB73194011438183D6
:1059F00070470A460021818B4FF6FF3319404FF65E
:105A0000FF7303EA02231943818370470A4600218A
:105A1000018B4FF67F7319401143018370470A468B
:105A20000021018BC1F30E014FF6FF7303EA02233D
:105A30001943018370470A460021818B4FF67F731B
:105A400019401143818370470A460021818BC1F3BD
:105A50000E014FF6FF7303EA022319438183704757
:105A60000A460021018C4FF6FD7319401143018451
:105A700070470A460021018C4FF6F7731940114315
:105A8000018470470A460021018C4FF6DF731940EC
:105A90004FF6FF7303EA02131943018470470A4665
:105AA0000021018C4FF67F7319404FF6FF7303EA14
:105AB00002131943018470470A460021018C4FF6F6
:105AC000FF5319404FF6FF7303EA02231943018481
:105AD00070470A460021018C4FF2FF7319404FF6C0
